{
    "_format": "hh-sol-artifact-1",
    "contractName": "BiggieBank",
    "sourceName": "contracts/BiggieBank.sol",
    "abi": [
        {
            "inputs": [
                {
                    "internalType": "string",
                    "name": "_defaultBaseURI",
                    "type": "string"
                },
                {
                    "internalType": "address",
                    "name": "_payoutAddress",
                    "type": "address"
                }
            ],
            "stateMutability": "nonpayable",
            "type": "constructor"
        },
        {
            "anonymous": false,
            "inputs": [
                {
                    "indexed": true,
                    "internalType": "address",
                    "name": "owner",
                    "type": "address"
                },
                {
                    "indexed": true,
                    "internalType": "address",
                    "name": "spender",
                    "type": "address"
                },
                {
                    "indexed": true,
                    "internalType": "uint256",
                    "name": "id",
                    "type": "uint256"
                }
            ],
            "name": "Approval",
            "type": "event"
        },
        {
            "anonymous": false,
            "inputs": [
                {
                    "indexed": true,
                    "internalType": "address",
                    "name": "owner",
                    "type": "address"
                },
                {
                    "indexed": true,
                    "internalType": "address",
                    "name": "operator",
                    "type": "address"
                },
                {
                    "indexed": false,
                    "internalType": "bool",
                    "name": "approved",
                    "type": "bool"
                }
            ],
            "name": "ApprovalForAll",
            "type": "event"
        },
        {
            "anonymous": false,
            "inputs": [
                {
                    "indexed": true,
                    "internalType": "address",
                    "name": "previousOwner",
                    "type": "address"
                },
                {
                    "indexed": true,
                    "internalType": "address",
                    "name": "newOwner",
                    "type": "address"
                }
            ],
            "name": "OwnershipTransferred",
            "type": "event"
        },
        {
            "anonymous": false,
            "inputs": [
                {
                    "indexed": false,
                    "internalType": "bool",
                    "name": "pause",
                    "type": "bool"
                }
            ],
            "name": "PauseEvent",
            "type": "event"
        },
        {
            "anonymous": false,
            "inputs": [
                {
                    "indexed": true,
                    "internalType": "address",
                    "name": "from",
                    "type": "address"
                },
                {
                    "indexed": true,
                    "internalType": "address",
                    "name": "to",
                    "type": "address"
                },
                {
                    "indexed": true,
                    "internalType": "uint256",
                    "name": "id",
                    "type": "uint256"
                }
            ],
            "name": "Transfer",
            "type": "event"
        },
        {
            "anonymous": false,
            "inputs": [
                {
                    "indexed": true,
                    "internalType": "uint256",
                    "name": "id",
                    "type": "uint256"
                }
            ],
            "name": "WelcomeToBiggieBank",
            "type": "event"
        },
        {
            "inputs": [],
            "name": "MAX_ELEMENTS",
            "outputs": [
                {
                    "internalType": "uint256",
                    "name": "",
                    "type": "uint256"
                }
            ],
            "stateMutability": "view",
            "type": "function"
        },
        {
            "inputs": [],
            "name": "PRICE",
            "outputs": [
                {
                    "internalType": "uint256",
                    "name": "",
                    "type": "uint256"
                }
            ],
            "stateMutability": "view",
            "type": "function"
        },
        {
            "inputs": [
                {
                    "internalType": "address",
                    "name": "spender",
                    "type": "address"
                },
                {
                    "internalType": "uint256",
                    "name": "id",
                    "type": "uint256"
                }
            ],
            "name": "approve",
            "outputs": [],
            "stateMutability": "nonpayable",
            "type": "function"
        },
        {
            "inputs": [
                {
                    "internalType": "address",
                    "name": "owner",
                    "type": "address"
                }
            ],
            "name": "balanceOf",
            "outputs": [
                {
                    "internalType": "uint256",
                    "name": "",
                    "type": "uint256"
                }
            ],
            "stateMutability": "view",
            "type": "function"
        },
        {
            "inputs": [],
            "name": "baseTokenURI",
            "outputs": [
                {
                    "internalType": "string",
                    "name": "",
                    "type": "string"
                }
            ],
            "stateMutability": "view",
            "type": "function"
        },
        {
            "inputs": [
                {
                    "internalType": "uint256",
                    "name": "tokenId",
                    "type": "uint256"
                }
            ],
            "name": "burn",
            "outputs": [],
            "stateMutability": "nonpayable",
            "type": "function"
        },
        {
            "inputs": [
                {
                    "internalType": "uint256",
                    "name": "",
                    "type": "uint256"
                }
            ],
            "name": "getApproved",
            "outputs": [
                {
                    "internalType": "address",
                    "name": "",
                    "type": "address"
                }
            ],
            "stateMutability": "view",
            "type": "function"
        },
        {
            "inputs": [
                {
                    "internalType": "uint256",
                    "name": "_tokenId",
                    "type": "uint256"
                }
            ],
            "name": "getTokenURI",
            "outputs": [
                {
                    "internalType": "string",
                    "name": "",
                    "type": "string"
                }
            ],
            "stateMutability": "view",
            "type": "function"
        },
        {
            "inputs": [
                {
                    "internalType": "address",
                    "name": "",
                    "type": "address"
                },
                {
                    "internalType": "address",
                    "name": "",
                    "type": "address"
                }
            ],
            "name": "isApprovedForAll",
            "outputs": [
                {
                    "internalType": "bool",
                    "name": "",
                    "type": "bool"
                }
            ],
            "stateMutability": "view",
            "type": "function"
        },
        {
            "inputs": [],
            "name": "lock",
            "outputs": [],
            "stateMutability": "nonpayable",
            "type": "function"
        },
        {
            "inputs": [],
            "name": "locked",
            "outputs": [
                {
                    "internalType": "bool",
                    "name": "",
                    "type": "bool"
                }
            ],
            "stateMutability": "view",
            "type": "function"
        },
        {
            "inputs": [
                {
                    "internalType": "uint256",
                    "name": "_count",
                    "type": "uint256"
                },
                {
                    "internalType": "address",
                    "name": "_to",
                    "type": "address"
                }
            ],
            "name": "mint",
            "outputs": [],
            "stateMutability": "payable",
            "type": "function"
        },
        {
            "inputs": [],
            "name": "name",
            "outputs": [
                {
                    "internalType": "string",
                    "name": "",
                    "type": "string"
                }
            ],
            "stateMutability": "view",
            "type": "function"
        },
        {
            "inputs": [],
            "name": "owner",
            "outputs": [
                {
                    "internalType": "address",
                    "name": "",
                    "type": "address"
                }
            ],
            "stateMutability": "view",
            "type": "function"
        },
        {
            "inputs": [
                {
                    "internalType": "uint256",
                    "name": "id",
                    "type": "uint256"
                }
            ],
            "name": "ownerOf",
            "outputs": [
                {
                    "internalType": "address",
                    "name": "owner",
                    "type": "address"
                }
            ],
            "stateMutability": "view",
            "type": "function"
        },
        {
            "inputs": [],
            "name": "payoutAddress",
            "outputs": [
                {
                    "internalType": "address",
                    "name": "",
                    "type": "address"
                }
            ],
            "stateMutability": "view",
            "type": "function"
        },
        {
            "inputs": [
                {
                    "internalType": "uint256",
                    "name": "_count",
                    "type": "uint256"
                }
            ],
            "name": "price",
            "outputs": [
                {
                    "internalType": "uint256",
                    "name": "",
                    "type": "uint256"
                }
            ],
            "stateMutability": "view",
            "type": "function"
        },
        {
            "inputs": [],
            "name": "renounceOwnership",
            "outputs": [],
            "stateMutability": "nonpayable",
            "type": "function"
        },
        {
            "inputs": [
                {
                    "internalType": "address",
                    "name": "from",
                    "type": "address"
                },
                {
                    "internalType": "address",
                    "name": "to",
                    "type": "address"
                },
                {
                    "internalType": "uint256",
                    "name": "id",
                    "type": "uint256"
                }
            ],
            "name": "safeTransferFrom",
            "outputs": [],
            "stateMutability": "nonpayable",
            "type": "function"
        },
        {
            "inputs": [
                {
                    "internalType": "address",
                    "name": "from",
                    "type": "address"
                },
                {
                    "internalType": "address",
                    "name": "to",
                    "type": "address"
                },
                {
                    "internalType": "uint256",
                    "name": "id",
                    "type": "uint256"
                },
                {
                    "internalType": "bytes",
                    "name": "data",
                    "type": "bytes"
                }
            ],
            "name": "safeTransferFrom",
            "outputs": [],
            "stateMutability": "nonpayable",
            "type": "function"
        },
        {
            "inputs": [
                {
                    "internalType": "address",
                    "name": "operator",
                    "type": "address"
                },
                {
                    "internalType": "bool",
                    "name": "approved",
                    "type": "bool"
                }
            ],
            "name": "setApprovalForAll",
            "outputs": [],
            "stateMutability": "nonpayable",
            "type": "function"
        },
        {
            "inputs": [
                {
                    "internalType": "string",
                    "name": "_baseTokenURI",
                    "type": "string"
                }
            ],
            "name": "setBaseURI",
            "outputs": [],
            "stateMutability": "nonpayable",
            "type": "function"
        },
        {
            "inputs": [
                {
                    "internalType": "uint256",
                    "name": "_maxElements",
                    "type": "uint256"
                }
            ],
            "name": "setMaxElements",
            "outputs": [],
            "stateMutability": "nonpayable",
            "type": "function"
        },
        {
            "inputs": [
                {
                    "internalType": "bool",
                    "name": "_pause",
                    "type": "bool"
                }
            ],
            "name": "setPause",
            "outputs": [],
            "stateMutability": "nonpayable",
            "type": "function"
        },
        {
            "inputs": [
                {
                    "internalType": "address",
                    "name": "_payoutAddress",
                    "type": "address"
                }
            ],
            "name": "setPayoutAddress",
            "outputs": [],
            "stateMutability": "nonpayable",
            "type": "function"
        },
        {
            "inputs": [
                {
                    "internalType": "uint256",
                    "name": "_price",
                    "type": "uint256"
                }
            ],
            "name": "setPrice",
            "outputs": [],
            "stateMutability": "nonpayable",
            "type": "function"
        },
        {
            "inputs": [
                {
                    "internalType": "bytes4",
                    "name": "interfaceId",
                    "type": "bytes4"
                }
            ],
            "name": "supportsInterface",
            "outputs": [
                {
                    "internalType": "bool",
                    "name": "",
                    "type": "bool"
                }
            ],
            "stateMutability": "view",
            "type": "function"
        },
        {
            "inputs": [],
            "name": "symbol",
            "outputs": [
                {
                    "internalType": "string",
                    "name": "",
                    "type": "string"
                }
            ],
            "stateMutability": "view",
            "type": "function"
        },
        {
            "inputs": [
                {
                    "internalType": "uint256",
                    "name": "index",
                    "type": "uint256"
                }
            ],
            "name": "tokenByIndex",
            "outputs": [
                {
                    "internalType": "uint256",
                    "name": "",
                    "type": "uint256"
                }
            ],
            "stateMutability": "view",
            "type": "function"
        },
        {
            "inputs": [
                {
                    "internalType": "address",
                    "name": "owner",
                    "type": "address"
                },
                {
                    "internalType": "uint256",
                    "name": "index",
                    "type": "uint256"
                }
            ],
            "name": "tokenOfOwnerByIndex",
            "outputs": [
                {
                    "internalType": "uint256",
                    "name": "token",
                    "type": "uint256"
                }
            ],
            "stateMutability": "view",
            "type": "function"
        },
        {
            "inputs": [
                {
                    "internalType": "uint256",
                    "name": "_tokenId",
                    "type": "uint256"
                }
            ],
            "name": "tokenURI",
            "outputs": [
                {
                    "internalType": "string",
                    "name": "",
                    "type": "string"
                }
            ],
            "stateMutability": "view",
            "type": "function"
        },
        {
            "inputs": [],
            "name": "totalSupply",
            "outputs": [
                {
                    "internalType": "uint256",
                    "name": "",
                    "type": "uint256"
                }
            ],
            "stateMutability": "view",
            "type": "function"
        },
        {
            "inputs": [
                {
                    "internalType": "address",
                    "name": "from",
                    "type": "address"
                },
                {
                    "internalType": "address",
                    "name": "to",
                    "type": "address"
                },
                {
                    "internalType": "uint256",
                    "name": "id",
                    "type": "uint256"
                }
            ],
            "name": "transferFrom",
            "outputs": [],
            "stateMutability": "nonpayable",
            "type": "function"
        },
        {
            "inputs": [
                {
                    "internalType": "address",
                    "name": "newOwner",
                    "type": "address"
                }
            ],
            "name": "transferOwnership",
            "outputs": [],
            "stateMutability": "nonpayable",
            "type": "function"
        },
        {
            "inputs": [],
            "name": "withdrawAll",
            "outputs": [],
            "stateMutability": "nonpayable",
            "type": "function"
        }
    ],
    "bytecode": "0x608060405261271060075560006008556009805460ff19908116909155600b805490911690553480156200003257600080fd5b50604051620028c3380380620028c383398101604081905262000055916200032d565b604080518082018252600a81526942696767696542616e6b60b01b602080830191825283518085019094526002845261212160f11b908401528151919291620000a19160009162000254565b508051620000b790600190602084019062000254565b505050620000d4620000ce620000f260201b60201c565b620000f6565b620000df8262000148565b620000ea81620001c4565b50506200045b565b3390565b600680546001600160a01b038381166001600160a01b0319831681179093556040519116919082907f8be0079c531659141344cd1fd0a4f28419497f9722a3daafe3b4186f6b6457e090600090a35050565b62000152620001f6565b60095460ff1615620001ab5760405162461bcd60e51b815260206004820152601860248201527f436f6e747261637420616c7265616479206c6f636b65642e000000000000000060448201526064015b60405180910390fd5b8051620001c090600c90602084019062000254565b5050565b620001ce620001f6565b600b80546001600160a01b0390921661010002610100600160a81b0319909216919091179055565b6006546001600160a01b03163314620002525760405162461bcd60e51b815260206004820181905260248201527f4f776e61626c653a2063616c6c6572206973206e6f7420746865206f776e65726044820152606401620001a2565b565b82805462000262906200041e565b90600052602060002090601f016020900481019282620002865760008555620002d1565b82601f10620002a157805160ff1916838001178555620002d1565b82800160010185558215620002d1579182015b82811115620002d1578251825591602001919060010190620002b4565b50620002df929150620002e3565b5090565b5b80821115620002df5760008155600101620002e4565b634e487b7160e01b600052604160045260246000fd5b80516001600160a01b03811681146200032857600080fd5b919050565b600080604083850312156200034157600080fd5b82516001600160401b03808211156200035957600080fd5b818501915085601f8301126200036e57600080fd5b815181811115620003835762000383620002fa565b604051601f8201601f19908116603f01168101908382118183101715620003ae57620003ae620002fa565b81604052828152602093508884848701011115620003cb57600080fd5b600091505b82821015620003ef5784820184015181830185015290830190620003d0565b82821115620004015760008484830101525b95506200041391505085820162000310565b925050509250929050565b600181811c908216806200043357607f821691505b602082108114156200045557634e487b7160e01b600052602260045260246000fd5b50919050565b612458806200046b6000396000f3fe6080604052600436106102045760003560e01c806370a0823111610118578063a22cb465116100a0578063cf3090121161006f578063cf309012146105d4578063d547cfb7146105ee578063e985e9c514610603578063f2fde38b1461063e578063f83d08ba1461065e57600080fd5b8063a22cb46514610554578063b88d4fde14610574578063bedb86fb14610594578063c87b56dd146105b457600080fd5b80638d859f3e116100e75780638d859f3e146104d85780638da5cb5b146104ee57806391b7f5ed1461050c57806394bf804d1461052c57806395d89b411461053f57600080fd5b806370a082311461046e578063715018a61461048e57806371f9f200146104a3578063853828b6146104c357600080fd5b806333ea51a81161019b57806342966c681161016a57806342966c68146103c95780634f6ccce7146103e957806355f804b3146104095780635b8d02d7146104295780636352211e1461044e57600080fd5b806333ea51a8146103535780633502a716146103735780633bb3a24d1461038957806342842e0e146103a957600080fd5b806318160ddd116101d757806318160ddd146102d057806323b872dd146102f357806326a49e37146103135780632f745c591461033357600080fd5b806301ffc9a71461020957806306fdde031461023e578063081812fc14610260578063095ea7b3146102ae575b600080fd5b34801561021557600080fd5b50610229610224366004611cee565b610673565b60405190151581526020015b60405180910390f35b34801561024a57600080fd5b506102536106c5565b6040516102359190611d3b565b34801561026c57600080fd5b5061029661027b366004611d6e565b6004602052600090815260409020546001600160a01b031681565b6040516001600160a01b039091168152602001610235565b3480156102ba57600080fd5b506102ce6102c9366004611d9e565b610753565b005b3480156102dc57600080fd5b506102e561083a565b604051908152602001610235565b3480156102ff57600080fd5b506102ce61030e366004611dc8565b61084a565b34801561031f57600080fd5b506102e561032e366004611d6e565b610a11565b34801561033f57600080fd5b506102e561034e366004611d9e565b610a21565b34801561035f57600080fd5b506102ce61036e366004611e04565b610b2a565b34801561037f57600080fd5b506102e560075481565b34801561039557600080fd5b506102536103a4366004611d6e565b610b5a565b3480156103b557600080fd5b506102ce6103c4366004611dc8565b610ca3565b3480156103d557600080fd5b506102ce6103e4366004611d6e565b610d87565b3480156103f557600080fd5b506102e5610404366004611d6e565b610de9565b34801561041557600080fd5b506102ce610424366004611e35565b610e5d565b34801561043557600080fd5b50600b546102969061010090046001600160a01b031681565b34801561045a57600080fd5b50610296610469366004611d6e565b610e9f565b34801561047a57600080fd5b506102e5610489366004611e04565b610ef6565b34801561049a57600080fd5b506102ce610f59565b3480156104af57600080fd5b506102ce6104be366004611d6e565b610f63565b3480156104cf57600080fd5b506102ce610fd1565b3480156104e457600080fd5b506102e560085481565b3480156104fa57600080fd5b506006546001600160a01b0316610296565b34801561051857600080fd5b506102ce610527366004611d6e565b610fff565b6102ce61053a366004611ee6565b61102f565b34801561054b57600080fd5b506102536111cd565b34801561056057600080fd5b506102ce61056f366004611f22565b6111da565b34801561058057600080fd5b506102ce61058f366004611f4c565b611246565b3480156105a057600080fd5b506102ce6105af366004611fe7565b61131a565b3480156105c057600080fd5b506102536105cf366004611d6e565b61136f565b3480156105e057600080fd5b506009546102299060ff1681565b3480156105fa57600080fd5b5061025361137a565b34801561060f57600080fd5b5061022961061e366004612002565b600560209081526000928352604080842090915290825290205460ff1681565b34801561064a57600080fd5b506102ce610659366004611e04565b611387565b34801561066a57600080fd5b506102ce6113fd565b60006301ffc9a760e01b6001600160e01b0319831614806106a457506380ac58cd60e01b6001600160e01b03198316145b806106bf5750635b5e139f60e01b6001600160e01b03198316145b92915050565b600080546106d29061202c565b80601f01602080910402602001604051908101604052809291908181526020018280546106fe9061202c565b801561074b5780601f106107205761010080835404028352916020019161074b565b820191906000526020600020905b81548152906001019060200180831161072e57829003601f168201915b505050505081565b6000818152600260205260409020546001600160a01b03163381148061079c57506001600160a01b038116600090815260056020908152604080832033845290915290205460ff165b6107de5760405162461bcd60e51b815260206004820152600e60248201526d1393d517d055551213d49256915160921b60448201526064015b60405180910390fd5b60008281526004602052604080822080546001600160a01b0319166001600160a01b0387811691821790925591518593918516917f8c5be1e5ebec7d5bd14f71427d1e84f3dd0314c0f7b2291e5b200ac8c7c3b92591a4505050565b6000610845600a5490565b905090565b6000818152600260205260409020546001600160a01b038481169116146108a05760405162461bcd60e51b815260206004820152600a60248201526957524f4e475f46524f4d60b01b60448201526064016107d5565b6001600160a01b0382166108ea5760405162461bcd60e51b81526020600482015260116024820152701253959053125117d49150d25412515395607a1b60448201526064016107d5565b336001600160a01b038416148061092457506001600160a01b038316600090815260056020908152604080832033845290915290205460ff165b8061094557506000818152600460205260409020546001600160a01b031633145b6109825760405162461bcd60e51b815260206004820152600e60248201526d1393d517d055551213d49256915160921b60448201526064016107d5565b6001600160a01b0380841660008181526003602090815260408083208054600019019055938616808352848320805460010190558583526002825284832080546001600160a01b03199081168317909155600490925284832080549092169091559251849392917fddf252ad1be2c89b69c2b068fc378daa952ba7f163c4a11628f55a4df523b3ef91a4505050565b6008546000906106bf90836114f3565b6001600160a01b0382166000908152600360205260408120548210610a845760405162461bcd60e51b81526020600482015260196024820152786f776e657220696e646578206f7574206f6620626f756e647360381b60448201526064016107d5565b6000805b600a54811015610ae5576000818152600260205260409020546001600160a01b0386811691161415610ad35783821415610ac55791506106bf9050565b81610acf8161207d565b9250505b80610add8161207d565b915050610a88565b5060405162461bcd60e51b81526020600482015260196024820152786f776e657220696e646578206f7574206f6620626f756e647360381b60448201526064016107d5565b610b32611506565b600b80546001600160a01b0390921661010002610100600160a81b0319909216919091179055565b6000818152600260205260409020546060906001600160a01b0316610b915760405162461bcd60e51b81526004016107d590612098565b600a54821115610bb35760405162461bcd60e51b81526004016107d590612098565b6000600c8054610bc29061202c565b80601f0160208091040260200160405190810160405280929190818152602001828054610bee9061202c565b8015610c3b5780601f10610c1057610100808354040283529160200191610c3b565b820191906000526020600020905b815481529060010190602001808311610c1e57829003601f168201915b505050505090506000610c4d84611560565b8283604051602001610c6193929190612103565b6040516020818303038152906040529050610c7b81611666565b604051602001610c8b9190612229565b60405160208183030381529060405292505050919050565b610cae83838361084a565b6001600160a01b0382163b1580610d665750604051630a85bd0160e11b8082523360048301526001600160a01b03858116602484015260448301849052608060648401526000608484015290919084169063150b7a029060a401602060405180830381600087803b158015610d2257600080fd5b505af1158015610d36573d6000803e3d6000fd5b505050506040513d601f19601f82011682018060405250810190610d5a919061226e565b6001600160e01b031916145b610d825760405162461bcd60e51b81526004016107d59061228b565b505050565b610d9133826117ba565b610ddd5760405162461bcd60e51b815260206004820181905260248201527f63616c6c6572206973206e6f74206f776e6572206e6f7220617070726f76656460448201526064016107d5565b610de6816118ad565b50565b6000818152600260205260408120546001600160a01b0316610e595760405162461bcd60e51b8152602060048201526024808201527f617070726f76656420717565727920666f72206e6f6e6578697374656e74207460448201526337b5b2b760e11b60648201526084016107d5565b5090565b610e65611506565b60095460ff1615610e885760405162461bcd60e51b81526004016107d5906122b5565b8051610e9b90600c906020840190611c48565b5050565b6000818152600260205260409020546001600160a01b031680610ef15760405162461bcd60e51b815260206004820152600a6024820152691393d517d3525395115160b21b60448201526064016107d5565b919050565b60006001600160a01b038216610f3d5760405162461bcd60e51b815260206004820152600c60248201526b5a45524f5f4144445245535360a01b60448201526064016107d5565b506001600160a01b031660009081526003602052604090205490565b610f61611506565b565b610f6b611506565b610f7361083a565b811015610fcc5760405162461bcd60e51b815260206004820152602160248201527f6d617820656c656d656e74732062656c6f772063757272656e7420737570706c6044820152607960f81b60648201526084016107d5565b600755565b610fd9611506565b4780610fe457600080fd5b600b54610de69061010090046001600160a01b03164761197a565b611007611506565b60095460ff161561102a5760405162461bcd60e51b81526004016107d5906122b5565b600855565b600754600a54111561106e5760405162461bcd60e51b8152602060048201526008602482015267536f6c646f75742160c01b60448201526064016107d5565b600b5460ff16156110b25760405162461bcd60e51b815260206004820152600e60248201526d29b0b632b9903737ba1037b832b760911b60448201526064016107d5565b600754826110bf600a5490565b6110c991906122ec565b111561110b5760405162461bcd60e51b815260206004820152601160248201527013585e081b1a5b5a5d081c995858da1959607a1b60448201526064016107d5565b61111482610a11565b3410156111575760405162461bcd60e51b815260206004820152601160248201527056616c75652062656c6f7720707269636560781b60448201526064016107d5565b60005b82811015610d825761116e82600a54611a10565b600a805490600061117e8361207d565b91905055506001600a546111929190612304565b6040517fe62ce17174c5584c2899b3b5c4d1699ac47154ef8a638ea5b1b473a07da0365390600090a2806111c58161207d565b91505061115a565b600180546106d29061202c565b3360008181526005602090815260408083206001600160a01b03871680855290835292819020805460ff191686151590811790915590519081529192917f17307eab39ab6107e8899845ad3d59bd9653f200f220920489ca2b5937696c31910160405180910390a35050565b61125185858561084a565b6001600160a01b0384163b15806112f75750604051630a85bd0160e11b808252906001600160a01b0386169063150b7a02906112999033908a9089908990899060040161231b565b602060405180830381600087803b1580156112b357600080fd5b505af11580156112c7573d6000803e3d6000fd5b505050506040513d601f19601f820116820180604052508101906112eb919061226e565b6001600160e01b031916145b6113135760405162461bcd60e51b81526004016107d59061228b565b5050505050565b611322611506565b600b805460ff191682151590811790915560405160ff909116151581527f10e1c3fcaff06b68391033547e8f9bb8067d7c4a2e32659b0629153814d242d39060200160405180910390a150565b60606106bf82610b5a565b600c80546106d29061202c565b61138f611506565b6001600160a01b0381166113f45760405162461bcd60e51b815260206004820152602660248201527f4f776e61626c653a206e6577206f776e657220697320746865207a65726f206160448201526564647265737360d01b60648201526084016107d5565b610de681611aeb565b611405611506565b60095460ff16156114285760405162461bcd60e51b81526004016107d5906122b5565b6000600c80546114379061202c565b9050116114865760405162461bcd60e51b815260206004820181905260248201527f54686f75207368616c6c206e6f74206c6f636b207072656d61747572656c792160448201526064016107d5565b600754600a54146114e45760405162461bcd60e51b815260206004820152602260248201527f4e6f7420616c6c20426967677942616e6b7320617265206d696e746564207965604482015261742160f01b60648201526084016107d5565b6009805460ff19166001179055565b60006114ff828461236f565b9392505050565b6006546001600160a01b03163314610f615760405162461bcd60e51b815260206004820181905260248201527f4f776e61626c653a2063616c6c6572206973206e6f7420746865206f776e657260448201526064016107d5565b6060816115845750506040805180820190915260018152600360fc1b602082015290565b8160005b81156115ae57806115988161207d565b91506115a79050600a836123a4565b9150611588565b60008167ffffffffffffffff8111156115c9576115c9611e1f565b6040519080825280601f01601f1916602001820160405280156115f3576020820181803683370190505b5090505b841561165e57611608600183612304565b9150611615600a866123b8565b6116209060306122ec565b60f81b818381518110611635576116356123cc565b60200101906001600160f81b031916908160001a905350611657600a866123a4565b94506115f7565b949350505050565b606081516000141561168657505060408051602081019091526000815290565b60006040518060600160405280604081526020016123e360409139905060006003845160026116b591906122ec565b6116bf91906123a4565b6116ca90600461236f565b67ffffffffffffffff8111156116e2576116e2611e1f565b6040519080825280601f01601f19166020018201604052801561170c576020820181803683370190505b509050600182016020820185865187015b80821015611778576003820191508151603f8160121c168501518453600184019350603f81600c1c168501518453600184019350603f8160061c168501518453600184019350603f811685015184535060018301925061171d565b505060038651066001811461179457600281146117a7576117af565b603d6001830353603d60028303536117af565b603d60018303535b509195945050505050565b6000818152600260205260408120546001600160a01b03166118335760405162461bcd60e51b815260206004820152602c60248201527f4552433732313a206f70657261746f7220717565727920666f72206e6f6e657860448201526b34b9ba32b73a103a37b5b2b760a11b60648201526084016107d5565b6000828152600260205260409020546001600160a01b0390811690841681148061187657506000838152600460205260409020546001600160a01b038581169116145b8061165e57506001600160a01b0380821660009081526005602090815260408083209388168352929052205460ff16949350505050565b6000818152600260205260409020546001600160a01b0316806118ff5760405162461bcd60e51b815260206004820152600a6024820152691393d517d3525395115160b21b60448201526064016107d5565b6001600160a01b038116600081815260036020908152604080832080546000190190558583526002825280832080546001600160a01b031990811690915560049092528083208054909216909155518492907fddf252ad1be2c89b69c2b068fc378daa952ba7f163c4a11628f55a4df523b3ef908390a45050565b6000826001600160a01b03168260405160006040518083038185875af1925050503d80600081146119c7576040519150601f19603f3d011682016040523d82523d6000602084013e6119cc565b606091505b5050905080610d825760405162461bcd60e51b815260206004820152601060248201526f2a3930b739b332b9103330b4b632b21760811b60448201526064016107d5565b611a1a8282611b3d565b6001600160a01b0382163b1580611acf5750604051630a85bd0160e11b80825233600483015260006024830181905260448301849052608060648401526084830152906001600160a01b0384169063150b7a029060a401602060405180830381600087803b158015611a8b57600080fd5b505af1158015611a9f573d6000803e3d6000fd5b505050506040513d601f19601f82011682018060405250810190611ac3919061226e565b6001600160e01b031916145b610e9b5760405162461bcd60e51b81526004016107d59061228b565b600680546001600160a01b038381166001600160a01b0319831681179093556040519116919082907f8be0079c531659141344cd1fd0a4f28419497f9722a3daafe3b4186f6b6457e090600090a35050565b6001600160a01b038216611b875760405162461bcd60e51b81526020600482015260116024820152701253959053125117d49150d25412515395607a1b60448201526064016107d5565b6000818152600260205260409020546001600160a01b031615611bdd5760405162461bcd60e51b815260206004820152600e60248201526d1053149150511657d3525395115160921b60448201526064016107d5565b6001600160a01b038216600081815260036020908152604080832080546001019055848352600290915280822080546001600160a01b0319168417905551839291907fddf252ad1be2c89b69c2b068fc378daa952ba7f163c4a11628f55a4df523b3ef908290a45050565b828054611c549061202c565b90600052602060002090601f016020900481019282611c765760008555611cbc565b82601f10611c8f57805160ff1916838001178555611cbc565b82800160010185558215611cbc579182015b82811115611cbc578251825591602001919060010190611ca1565b50610e599291505b80821115610e595760008155600101611cc4565b6001600160e01b031981168114610de657600080fd5b600060208284031215611d0057600080fd5b81356114ff81611cd8565b60005b83811015611d26578181015183820152602001611d0e565b83811115611d35576000848401525b50505050565b6020815260008251806020840152611d5a816040850160208701611d0b565b601f01601f19169190910160400192915050565b600060208284031215611d8057600080fd5b5035919050565b80356001600160a01b0381168114610ef157600080fd5b60008060408385031215611db157600080fd5b611dba83611d87565b946020939093013593505050565b600080600060608486031215611ddd57600080fd5b611de684611d87565b9250611df460208501611d87565b9150604084013590509250925092565b600060208284031215611e1657600080fd5b6114ff82611d87565b634e487b7160e01b600052604160045260246000fd5b600060208284031215611e4757600080fd5b813567ffffffffffffffff80821115611e5f57600080fd5b818401915084601f830112611e7357600080fd5b813581811115611e8557611e85611e1f565b604051601f8201601f19908116603f01168101908382118183101715611ead57611ead611e1f565b81604052828152876020848701011115611ec657600080fd5b826020860160208301376000928101602001929092525095945050505050565b60008060408385031215611ef957600080fd5b82359150611f0960208401611d87565b90509250929050565b80358015158114610ef157600080fd5b60008060408385031215611f3557600080fd5b611f3e83611d87565b9150611f0960208401611f12565b600080600080600060808688031215611f6457600080fd5b611f6d86611d87565b9450611f7b60208701611d87565b935060408601359250606086013567ffffffffffffffff80821115611f9f57600080fd5b818801915088601f830112611fb357600080fd5b813581811115611fc257600080fd5b896020828501011115611fd457600080fd5b9699959850939650602001949392505050565b600060208284031215611ff957600080fd5b6114ff82611f12565b6000806040838503121561201557600080fd5b61201e83611d87565b9150611f0960208401611d87565b600181811c9082168061204057607f821691505b6020821081141561206157634e487b7160e01b600052602260045260246000fd5b50919050565b634e487b7160e01b600052601160045260246000fd5b600060001982141561209157612091612067565b5060010190565b6020808252602f908201527f4552433732314d657461646174613a2055524920717565727920666f72206e6f60408201526e3732bc34b9ba32b73a103a37b5b2b760891b606082015260800190565b600081516120f9818560208601611d0b565b9290920192915050565b607b60f81b815274226e616d65223a202242696767696542616e6b202360581b6001820152835160009061213e816016850160208901611d0b565b61088b60f21b6016918401918201527f226465736372697074696f6e223a20224f6e20636861696e2070696767792062601882015265185b9adcc88b60d21b6038820152691134b6b0b3b2911d101160b11b603e82015284516121a8816048840160208901611d0b565b70189a59d9da595c1a59d9de4b9c1b99c88b607a1b60489290910191820152711130b734b6b0ba34b7b72fbab936111d101160711b605982015261221f6122126121f5606b8401876120e7565b70189a59d9da595c1a59d9de4b99db18888b607a1b815260110190565b607d60f81b815260010190565b9695505050505050565b7f646174613a6170706c69636174696f6e2f6a736f6e3b6261736536342c00000081526000825161226181601d850160208701611d0b565b91909101601d0192915050565b60006020828403121561228057600080fd5b81516114ff81611cd8565b60208082526010908201526f155394d0519157d49150d2541251539560821b604082015260600190565b60208082526018908201527f436f6e747261637420616c7265616479206c6f636b65642e0000000000000000604082015260600190565b600082198211156122ff576122ff612067565b500190565b60008282101561231657612316612067565b500390565b6001600160a01b038681168252851660208201526040810184905260806060820181905281018290526000828460a0840137600060a0848401015260a0601f19601f85011683010190509695505050505050565b600081600019048311821515161561238957612389612067565b500290565b634e487b7160e01b600052601260045260246000fd5b6000826123b3576123b361238e565b500490565b6000826123c7576123c761238e565b500690565b634e487b7160e01b600052603260045260246000fdfe4142434445464748494a4b4c4d4e4f505152535455565758595a6162636465666768696a6b6c6d6e6f707172737475767778797a303132333435363738392b2fa2646970667358221220fee0637d23a58ae3c13f22d0ff8256bdde6f387072047be3006912b38f99504e64736f6c63430008080033",
    "linkReferences": {},
    "deployedLinkReferences": {}
}